{
  "_format": "hh-sol-artifact-1",
  "contractName": "Staking",
  "sourceName": "contracts/Staking.sol",
  "abi": [
    {
      "inputs": [
        {
          "internalType": "address",
          "name": "stakingToken",
          "type": "address"
        }
      ],
      "stateMutability": "payable",
      "type": "constructor"
    },
    {
      "inputs": [],
      "name": "ReentrancyGuardReentrantCall",
      "type": "error"
    },
    {
      "anonymous": false,
      "inputs": [
        {
          "indexed": true,
          "internalType": "address",
          "name": "user",
          "type": "address"
        },
        {
          "indexed": true,
          "internalType": "uint256",
          "name": "amount",
          "type": "uint256"
        }
      ],
      "name": "Staked",
      "type": "event"
    },
    {
      "inputs": [],
      "name": "lastUpdateTime",
      "outputs": [
        {
          "internalType": "uint256",
          "name": "",
          "type": "uint256"
        }
      ],
      "stateMutability": "view",
      "type": "function"
    },
    {
      "inputs": [],
      "name": "s_stakingToken",
      "outputs": [
        {
          "internalType": "contract IERC20",
          "name": "",
          "type": "address"
        }
      ],
      "stateMutability": "view",
      "type": "function"
    },
    {
      "inputs": [
        {
          "internalType": "uint256",
          "name": "amount",
          "type": "uint256"
        }
      ],
      "name": "stake",
      "outputs": [],
      "stateMutability": "nonpayable",
      "type": "function"
    },
    {
      "inputs": [
        {
          "internalType": "address",
          "name": "",
          "type": "address"
        }
      ],
      "name": "stakedBalance",
      "outputs": [
        {
          "internalType": "uint256",
          "name": "",
          "type": "uint256"
        }
      ],
      "stateMutability": "view",
      "type": "function"
    }
  ],
  "bytecode": "0x6080604052604051610716380380610716833981810160405281019061002591906100d7565b600160008190555080600160006101000a81548173ffffffffffffffffffffffffffffffffffffffff021916908373ffffffffffffffffffffffffffffffffffffffff16021790555050610104565b600080fd5b600073ffffffffffffffffffffffffffffffffffffffff82169050919050565b60006100a482610079565b9050919050565b6100b481610099565b81146100bf57600080fd5b50565b6000815190506100d1816100ab565b92915050565b6000602082840312156100ed576100ec610074565b5b60006100fb848285016100c2565b91505092915050565b610603806101136000396000f3fe608060405234801561001057600080fd5b506004361061004c5760003560e01c80636021726714610051578063a694fc3a14610081578063adca9b721461009d578063c8f33c91146100bb575b600080fd5b61006b6004803603810190610066919061035c565b6100d9565b60405161007891906103a2565b60405180910390f35b61009b600480360381019061009691906103e9565b6100f1565b005b6100a561027d565b6040516100b29190610475565b60405180910390f35b6100c36102a3565b6040516100d091906103a2565b60405180910390f35b60046020528060005260406000206000915090505481565b6100f96102a9565b6000811161010a57610109610490565b5b806002600082825461011c91906104ee565b9250508190555080600460003373ffffffffffffffffffffffffffffffffffffffff1673ffffffffffffffffffffffffffffffffffffffff168152602001908152602001600020600082825461017291906104ee565b92505081905550803373ffffffffffffffffffffffffffffffffffffffff167f9e71bc8eea02a63969f509818f2dafb9254532904319f9dbda79b67bd34a5f3d60405160405180910390a36000600160009054906101000a900473ffffffffffffffffffffffffffffffffffffffff1673ffffffffffffffffffffffffffffffffffffffff166323b872dd3330856040518463ffffffff1660e01b815260040161021e93929190610531565b6020604051808303816000875af115801561023d573d6000803e3d6000fd5b505050506040513d601f19601f8201168201806040525081019061026191906105a0565b90508061027157610270610490565b5b5061027a6102ef565b50565b600160009054906101000a900473ffffffffffffffffffffffffffffffffffffffff1681565b60035481565b6002600054036102e5576040517f3ee5aeb500000000000000000000000000000000000000000000000000000000815260040160405180910390fd5b6002600081905550565b6001600081905550565b600080fd5b600073ffffffffffffffffffffffffffffffffffffffff82169050919050565b6000610329826102fe565b9050919050565b6103398161031e565b811461034457600080fd5b50565b60008135905061035681610330565b92915050565b600060208284031215610372576103716102f9565b5b600061038084828501610347565b91505092915050565b6000819050919050565b61039c81610389565b82525050565b60006020820190506103b76000830184610393565b92915050565b6103c681610389565b81146103d157600080fd5b50565b6000813590506103e3816103bd565b92915050565b6000602082840312156103ff576103fe6102f9565b5b600061040d848285016103d4565b91505092915050565b6000819050919050565b600061043b610436610431846102fe565b610416565b6102fe565b9050919050565b600061044d82610420565b9050919050565b600061045f82610442565b9050919050565b61046f81610454565b82525050565b600060208201905061048a6000830184610466565b92915050565b7f4e487b7100000000000000000000000000000000000000000000000000000000600052600160045260246000fd5b7f4e487b7100000000000000000000000000000000000000000000000000000000600052601160045260246000fd5b60006104f982610389565b915061050483610389565b925082820190508082111561051c5761051b6104bf565b5b92915050565b61052b8161031e565b82525050565b60006060820190506105466000830186610522565b6105536020830185610522565b6105606040830184610393565b949350505050565b60008115159050919050565b61057d81610568565b811461058857600080fd5b50565b60008151905061059a81610574565b92915050565b6000602082840312156105b6576105b56102f9565b5b60006105c48482850161058b565b9150509291505056fea2646970667358221220acc6f7bbc43250ec3e3c4721fdbfef0aa05a356db6ae524e85fd400a533a330064736f6c634300081b0033",
  "linkReferences": {},
  "deployedLinkReferences": {}
}